:100000000C943A000C9457000C9457000C94570031
:100010000C9457000C9457000C9457000C94570004
:100020000C9457000C943B030C9457000C9457000D
:100030000C9457000C9457000C9457000C945700E4
:100040000C9457000C9457000C9457000C945700D4
:100050000C9457000C94E2020C9457000C94570037
:100060000C9457000C9457000C9457000C945700B4
:100070000C94570011241FBECFEFD2E0DEBFCDBFDE
:1000800011E0A0E0B1E0EEEFF6E002C005900D92C5
:10009000A831B107D9F711E0A8E1B1E001C01D9284
:1000A000A732B107E1F70E940B020C947D030C9478
:1000B00000008F929F92AF92BF92DF92EF92FF92D9
:1000C0000F931F93CF93DF9300D000D0CDB7DEB74F
:1000D0007C015B014A01D22E102F1A5F812F622F03
:1000E0000E94B001CE010196B70142E00E94D40007
:1000F000CE0101960E94C6018AE0E816F10444F49C
:10010000812F6D2D0E94B00180E091E00E94C60118
:10011000802F8B5F6D2D0E94B00182E091E00E94E4
:10012000C601102F1D5F812F6D2D0E94B001CE01E1
:100130000196B50142E00E94D400CE0101960E94D2
:10014000C6018AE0A816B10444F4812F6D2D0E94E7
:10015000B00180E091E00E94C601802F8E5F6D2D7E
:100160000E94B00184E091E00E94C601802F6D2DB5
:100170000E94B001CE010196B40142E00E94D40079
:10018000CE0101960E94C6010F900F900F900F9024
:10019000DF91CF911F910F91FF90EF90DF90BF9073
:1001A000AF909F908F900895FF920F931F93CF93DE
:1001B000DF938C019B01772334F4309521953F4FD9
:1001C000FF24F39401C0FF24E42FFF27E7FDF095FF
:1001D000E00FF11F108241502115310551F4E42F39
:1001E000FF27E7FDF095E00FF11F80E3808341508A
:1001F00019C04423BCF0CAE0D0E0842F992787FDC2
:100200009095F801E80FF91FC901BE010E9456033D
:10021000805D80834150262F372F2115310511F045
:100220004F3F59F7FF2059F04423ACF0E42FFF274C
:10023000E7FDF095E00FF11F8DE2808341504423EC
:1002400054F080E2E42FFF27E7FDF095E00FF11F67
:1002500080834150B8F7DF91CF911F910F91FF90AC
:1002600008955D9A85E38A95F1F700005D980895F9
:100270009BB1907F9BB99BB182958F70982B9BB956
:100280000E9431010895CF93C82F5C9A0E943801D3
:100290008C2F8295807F0E9438018AE78A95F1F73A
:1002A00000C0CF910895CF93C82F5C980E94380169
:1002B0008C2F8295807F0E94380180E78A95F1F724
:1002C000CF91089581E00E9453018FE99FE001974B
:1002D000F1F700C0000008958AB18F638AB98BB12D
:1002E000807C8BB98FE295E70197F1F700C00000A1
:1002F00080E30E9438018FE097E20197F1F700C098
:1003000000000E9431018FEC97E00197F1F700C0E7
:1003100000000E9431018FEC97E00197F1F700C0D7
:10032000000080E20E9438018FE097E20197F1F728
:1003300000C0000088E20E9453018CE00E9453013B
:1003400086E00E9453010E946201089582E00E94AB
:1003500053018FE99FE00197F1F700C00000089575
:10036000623061F0633018F4613079F405C06330B5
:1003700039F0643051F406C0805805C0805403C081
:10038000805701C080530E9453010895CF93DF939B
:10039000EC018881882331F021960E9443018991E4
:1003A0008823D9F7DF91CF9108950F931F93CF93AF
:1003B000DF93062F172F880F880F880F80640E9405
:1003C0005301C02FD12F18E089910E944301115091
:1003D000D9F7DF91CF911F910F91089514B88FEF46
:1003E00085B980E887B988B981E08093680087E0A3
:1003F00080936B00789408958AE08093170181E0E0
:1004000080936E0083E085BD82E886BD08951092DA
:100410006E0015BC0895C6E0D1E00F2EFDE0EF2E72
:10042000F1E0FF2EF02D13E00F2EF4E6CF2EDD24A9
:10043000F02D80911801813099F1813030F08230B7
:10044000E1F1833009F0A2C054C00E94EE010E9485
:100450006C0180E061E00E94B0010E946201CE0167
:100460000E94C60180E090E060E070E040E050E073
:1004700021E008E00E94590080E062E00E94B001A3
:10048000C7010E94C60180E090E060E070E040E0BB
:1004900050E022E00E94590081E08093180176C06C
:1004A00080911901813009F071C00E94FC01109205
:1004B000190182E08093180169C08091190183308D
:1004C00009F064C00E940702109219018091250171
:1004D00090912601609123017091240140912101A6
:1004E0005091220121E008E00E9459001093180168
:1004F0004DC080911901823009F048C080912501DA
:10050000909126019093200180931F0180912101F9
:100510009091220190931C0180931B0180912301F3
:100520009091240190931E0180931D011092260149
:1005300010922501109224011092230110922201A1
:1005400010922101109219018091250190912601AC
:100550006091230170912401409121015091220169
:1005600021E008E00E94590080911F019091200134
:1005700060911D0170911E0140911B0150911C0161
:1005800022E00E94590081E08093180180911501BA
:1005900090911601009709F04CCF80912501909120
:1005A0002601609123017091240140912101509115
:1005B000220121E008E00E945900D0921601C09269
:1005C000150137CF1F920F920FB60F9211248F9300
:1005D0009F9382E886BD809117018823B9F588B181
:1005E000805888B9809125019091260101969093B9
:1005F0002601809325018AE08093170180912501CF
:10060000909126018436910509F5809123019091FE
:1006100024010196909324018093230110922601D6
:100620001092250180912301909124018C33910532
:1006300069F4809121019091220101969093220109
:1006400080932101109224011092230180911701BF
:1006500081508093170180911501909116010197A7
:1006600090931601809315019F918F910F900FBE6B
:100670000F901F9018951F920F920FB60F92112492
:100680008F93189903C081E080931901199903C0D1
:1006900082E0809319011A9903C083E080931901C5
:1006A0008F910F900FBE0F901F90189597FB092EFA
:1006B00007260AD077FD04D00CD006D000201AF40B
:1006C000709561957F4F0895F6F7909581959F4FAE
:1006D0000895AA1BBB1B51E107C0AA1FBB1FA61789
:1006E000B70710F0A61BB70B881F991F5A95A9F7DB
:0E06F00080959095BC01CD010895F894FFCF40
:1006FE0030002C003A005A6569743A20004C65743B
:08070E007A74653A0064000AE8
:00000001FF
